:100000000EC028C075C026C025C024C023C022C091
:1000100021C020C04BC01EC01DC01CC01BC011246D
:100020001FBECFE5D2E0DEBFCDBF10E0A0E6B0E05E
:10003000E8E7F2E002C005900D92AA38B107D9F7BF
:1000400020E0AAE8B0E001C01D92A339B207E1F7B1
:100050009AD010C1D5CFDC01CB016FB7F894E42F53
:1000600028B3422B5FEFE527E2235E2F37E02D9187
:1000700048BB220F30F058BB000027FB315031F055
:10008000F7CF000027FB315058BB91F737E048BB52
:100090003EF0000058BB2D91019751F76FBF0895B6
:1000A0002D91019758BB21F76FBF08951F920F92B2
:1000B0000FB60F9211248F93809192008F5F8093DF
:1000C00092008F910F900FBE0F901F901895DC013A
:1000D0008C91EFE8F0E0818311968C9111978083E9
:1000E00012968C91828344E063E070E0CF01B3CF3D
:1000F0001F920F920FB60F9211248F9385B78F7DA9
:1001000085BF8F910F900FBE0F901F90189580E1C3
:1001100088BB85B7806185BF85B7806285BF8895BC
:1001200008952FEF80E792E0215080409040E1F762
:1001300000C0000085E188BB8DE087BB379882E076
:100140008ABD85E083BF8FE789BD80E189BF2FEF3E
:1001500080E792E0215080409040E1F700C000002D
:1001600010928E0010928D0081E080938C0010928E
:100170008B0010928A0087E690E0A9DF8BB780623F
:100180008BBFAC9A08950FB6F894A89581B5886195
:1001900081BD11BC0FBEC5DF789480919200823082
:1001A000E0F31092920020918B0080918C00322F0E
:1001B00036953695369590E067E070E04AD0805AE3
:1001C0009F4FFC01E30FF11D8381277001C0880F51
:1001D0002A95EAF787FF02C0C39A01C0C3988091AD
:1001E0008B008B3168F010928B0080918A008A30EE
:1001F00018F08DDF96DF07C08F5F80938A0003C001
:100200008F5F80938B0086B3807180938D00909177
:100210008E009923C9F0811117C010928A00809135
:100220008C00853018F010928C0003C08F5F809393
:100230008C0080918C0090E067E070E00AD0805ADA
:100240009F4F45DF10928B0080918D0080938E0030
:10025000A4CF0024552704C0080E591F880F991FEA
:10026000009729F076956795B8F37105B9F7802D59
:08027000952F0895F894FFCFCB
:100278000A1432E3042100001400E300A000000087
:1002880050E30001000A0000E30400000A1400E340
:0A0298005400000A0032E350200079
:00000001FF
